:400000000080002011000000D1010000D101000010B500F033FA00F0E3F8000070B572B680250024264BED001C602A002100254800F02DFE2A002100234800F028FEEE221F
:40004000224B12061A6099230621214A1B041360204A30201360204A1360204A13780B431370D8221E4B12041A6020221D4B1A60C0221D4B92021A60C0221C4B12041A6089
:4000800012221B4B1A6000F07FFB1A4A1A4B1B491A601B4B063A1A6080221A4B12031A60082000F043FB082000F04CFB164B174A1C6003231360164A1360164B1C6070BDFC
:4000C0006CF02E4000300F4000400F400000024000500F4010500F4030500F4000700F4008000440000104400801044008030440300010400600008004010B40510900002D
:4001000008010B4000010B400C020B403000304030003140000E3F4010B5064C2378002B07D1054B002B02D0044800E000BF0123237010BD6801002000000000A80C00004A
:40014000084B10B5002B03D00749084800E000BF07480368002B00D110BD064B002BFBD09847F9E7000000006C010020A80C0000C80000200000000010B5012000F04CFA5C
:40018000002000F049FA0C2000F03AFC0C4C200000F04EFA200000F04BFA0A4800F048FA094800F045FA094800F042FA200000F03FFA200000F03CFA00F0CAF9FEE7C046E7
:4001C000E50C0000AC0C0000D60C0000E80C000010B500F027FD03680C2B00D1FEE7FEE7F8B500250F49104B01394A1C14D000221F685C689E68A018B24203D0B858A0506F
:400200000432F8E70200DE68141AA64201D020C2FAE710330139E8E700F00AFDFFF7ACFFFEE7C046010000006C0D000001210F4A70B5136814008B43136000230C4D0D4E27
:400240000D489A002900032B00D8B15801338150302BF6D1FFF7E2FE084B1A68002A00D11A60012223681343236070BD00001040D10100000000000000000020C00000203A
:400280000047F0B5FF230C000100C1B099430B004D1C6946020AFF35CE1A1F78F7540133AB42FAD1C0B20C5490B200F0CFF941B0F0BD0000013810B50B2830D80902494284
:4002C00000F01AFC06080A0C0E10141216191B20174B13E0174B16E0174B0AE0174B12E0174B0BE0174B09E0174B02E0174B00E0174BC91817E0174B05E0174BC918087877
:40030000C0B214E0154BC9180A7848788C780002230418430300C8781343000606E0002000F01AFA00210B7848780002184310BDC0FF0300C1FF0300C5FF0300C9FF0300FE
:40034000D0FF0300D1FF0300D6FF0300D2FF0300D4FF0300D8FF0300DCFF0300E0FF0300F0B50121C5B00B20FFF7A4FF0021C3B203200193FFF79EFF3A4B013084B21B1BBA
:400380005B089BB201210420E4180093FFF792FF030AC0B2A4B29BB2002801D001339BB200251B199BB20293029B9C4224D00326009B2702E31A9BB203933B007A1C04A9A0
:4003C000FF32C81B1D78C55401339342FAD1039800F03CF9051E0CD0013EF6B2002EECD10123019920489943FFF74BFF300000F0B3F90134A4B2D7E7002D2ED180235B0055
:400400001A4A04A9AA1812786A5401359D42F7D144AB5B1B190001220024DC310A70144910480C701900D031D1330A7004A91A7000F00CF92A000600210004A800F027FC73
:4004400004A90C4800F002F93043A04205D18022094B1A6000F082F902E0002000F07CF945B0F0BDFF030000DCFE030000FE0300CC000020FE030000C0000020184B70B54C
:400480001A681023174D134000D12B602B68802B25D100210520FFF70DFF012104000520FFF708FF0023E4B2C0B29C4204D01C00984205D0033403E0441EA0410224241A47
:4004C000210002202B60FFF7F5FE002807D0012C05D821000220FFF7EDFEFFF7D1FE70BD00030B40C000002070B5010006000320FFF7E0FE310004000420FFF7DBFE0500A8
:40050000012E01D9062021E00134310024020320FFF7D0FE611900242500431C1B028B4209D21A78501EC0B2FD2800D80125A218D4B20133F3E731000120FFF7BBFE6442A7
:40054000E4B28442DED1002DDCD0002070BD0000F8B501210B20FFF7ADFEC30701D5FFF7FFFE0020FFF7C0FF05000120FFF7BCFF0223254C0700002105202370FFF79AFE6C
:400580000626012808D1002D02D125702E0003E0002F01D13E0020702378022B0ED101210520FFF787FE012808D1002F02D120703E0003E0002D01D12E0025702378022BF0
:4005C00008D1002D01D1257006E0002F02D10123237001E0002E12D12478E4B2012C08D801210A486140FFF74CFE21000848FFF748FE8022074B1A6000F0B0F8F8BD0020E1
:4006000000F0AAF8F5E7C046CC000020D0FF0300D0FE0300C00000207F23044AC00111680B401843C0B210607047C0460003044070B5012405000078002805D000F0E0F994
:40064000285D0134E4B2F7E770BD00000023F0B5C7B0029303932C4B050098424FD800294DD0802206A8520000F008FB274B9D4201D8274B00E0274BFF220493264C2749D5
:40068000274B04AE726026600B60C046236801911B0F0F2B04D021680023090F0A2901D0236813400293029F002F2AD100F01DFA0397029B002B16D11A4A2D040492049AD9
:4006C000194915430495019D2660134A2960C0462168090F0F2903D01168090F0A2901D01368DBB20293039B002B05D10393039B002B01D0039B029300F0FBF901E00423CB
:400700000293029847B0F0BDFF030000FF010000B6D70000B6D70001080010400400104004000080B6D80000050000801F2800D901BE034B8000C318186819607047C04648
:40074000400000201F2318401E3B8340014A13607047C04600E100E001BE7047034A044913689BB20B4313607047C0460CED00E00400FA0510B5034B1B7B584300F0ACF91C
:4007800010BDC046E4000020F0B5050087B000F0ACF9EB1E049003932D2B5CD8314B1B789D4204D8304B1C78304BE4B21EE0304B1B789D4204D82F4B1C782F4BE4B215E069
:4007C0002E4B1B789D4204D82D4B1C782D4BE4B20CE02D4B1B789D4204D82C4B1C782C4BE4B203E02B4B1C782B4BE4B21B78EA1EDBB20193294B2A4F9A5C059302922F2A31
:4008000004D92A2D02D919263E6008E03F233E681E40029BB34205D2214B029A1A60052000F05AF91C4B1F4AED182B780520DBB213601D4B019A1C601C4B1A60FFF79AFF9F
:40084000029BB34208D9059B039A05209B5C3B6000F042F900E001BE049800F04AF907B0F0BDC04640F3FF0F41F3FF0F42F3FF0F43F3FF0F44F3FF0F45F3FF0F46F3FF0F32
:4008800047F3FF0F48F3FF0F49F3FF0F4AF3FF0F4BF3FF0F4CF3FF0F4DF3FF0F180D00002CFF0B4028FF0B401CFF0B4020FF0B4010B500F01AF9C021034A090213680B4384
:4008C000136000F016F910BD00010B4010B5802400F00BF90749084B0A68E4011A4022430A600A6813408022120213430B6000F000F910BD00010B40FF3FFFFF70B5050049
:4009000000F0F3F80E4B04001A68C0231B02134011D10C480C49054028000E680B4A3240104308600A68012B01D1FFF7C1FF200000F0DFF870BDFFF7C9FF0123E9E7C046C8
:4009400000010B400404040010020B40FBFBFBFF042270B5224C2368134213D021494B6813420CD0204B5D6A48681540A8434860596A914359629B69002B00D098470420EA
:40098000FFF7BCFF80232268DB001A4215D015494A681A420DD0144A556A48682B4098434860516A114B0B405362D369002B00D098478020C000FFF7A1FF80232268DB020C
:4009C0001A420CD0074A52681A4204D0064B1B6A002B00D098478020C002FFF78FFF70BD10020B40F800002084010020FFFBFFFF00000000000000000000000000000000AF
:400A0000FEB5494652465B460EB407462E4909688A462E4A12682E48022100F077F803002A480068C0182A4900F070F806001F3EB346234A126801219140C9430C00012596
:400A4000002600F052F8814651460B6823400B605846043000F040F83800F040284090400B68234003430B60584600F035F80136072EF1D900200130012090400B6823404D
:400A800003430B605846063000F026F8484600F030F8C046C046C0460EBC894692469B46FEBDC046C046C046C046C046C046C046C046C046C046C046C046C046C046C04684
:400AC000E0000020DC000020D8000020F400002000E10000000000000230800803D00138FDD1C046C046C0467047EFF3108072B6704780F31088704702B471464908490096
:400B0000095C49008E4402BC7047C046002243088B4274D303098B425FD3030A8B4244D3030B8B4228D3030C8B420DD3FF22090212BA030C8B4202D31212090265D0030B90
:400B40008B4219D300E0090AC30B8B4201D3CB03C01A5241830B8B4201D38B03C01A5241430B8B4201D34B03C01A5241030B8B4201D30B03C01A5241C30A8B4201D3CB02E6
:400B8000C01A5241830A8B4201D38B02C01A5241430A8B4201D34B02C01A5241030A8B4201D30B02C01A5241CDD2C3098B4201D3CB01C01A524183098B4201D38B01C01AF8
:400BC000524143098B4201D34B01C01A524103098B4201D30B01C01A5241C3088B4201D3CB00C01A524183088B4201D38B00C01A524143088B4201D34B00C01A5241411ACF
:400C000000D20146524110467047FFE701B5002000F006F802BDC0460029F7D076E770477047C046014B18687047C046600100200E4B70B500251E000D4CE41AA410A5420E
:400C400004D0AB00F35898470135F8E700F07CF8084B00251E00084CE41AA410A54204D0AB00F35898470135F8E770BD540D0000540D0000540D00005C0D0000002310B570
:400C80009A4203D0CC5CC4540133F9E710BD03008218934202D019700133FAE770470000000F000011000000000000003E20424C452055706772616461626C65205374611B
:400CC000636B204578616D706C65204C61756E636865720D0A003E2056657273696F6E3A20312E32300D0A003E20436F6D70696C65204461746520616E642054696D653A5A
:400D0000204A756C20333020323031392031343A31333A34340D0A00030405060708090A0B0C0E0F101112131415161718191B1C1D1E1F2021222325262728292A2B2E2F5C
:400D40003031323334354300F8B5C046F8BC08BC9E467047410100002D020000F8B5C046F8BC08BC9E46704719010000800D0000C8000020A000000048000000000000008D
:400D80000000000002000000A00C0000A40C0000000104400100000005000000010000000000E02EC05D00001800000000366E01F0000000040404000000000000000000A5
:400DC000000000000000000000000000000000000000000000000000460D0000000000000000000000000000000000000000000000000000000000000000000000000000A0
:400E00000000000000000000000000000000000000000000000000000001002000000000000000000000000000000000000000000000000000000000000000000000000091
:400E40000000000000000000000000000000000000000000000000000000000000000000000000000000000000000000000000000000000000000000000000000000000072
:400E80000000000000000000000000000000000000000000000000000000000000000000000000000000000000000000000000000000000000000000000000000000000032
:400EC00000000000000000000000000000000000000000000000000000000000000000000000000000000000000000000000000000000000000000000000000000000000F2
:400F000000800020110F0000C1160000C116000010B5024B83F3088800F0F4FB0080002070B512221D4B1A6001F068FF1C4802F0F3F8012001F082FF302001F011FE194A92
:400F4000194B1A60194C8025ED052560184A116802230B431360174A174B1A600022174B1A60174A136808218B431360FA20C00001F0A8FE134801F0E9FD80221206124B16
:400F80001A6080221203114B1A601149082001F0A7FD082001F098FD256070BD30001040001BB7000600008004010B400C020B4078002E402D3E00007C002E4064F02E4035
:400FC0006CF02E40DC05000008010B4000010B40552F000010B572B600221F4B1A6000240FE01E486200131959000B00411889881A5AC31858880004104300F05BFB013459
:40100000E4B2012CEDD9EE221206154B1A6099231B04144A1360144A1360144A1360144A117806230B43DBB213700223114A13601149124A11600821114A11607931FF3180
:40104000104A1160104A13603022104B1A60FFF767FF00F01FFB10BD6CF02E4020E501000000024000500F4020500F4030500F4000700F4000000440900DD800080004407B
:401080000C00044008020440000304400803044010B5064C2378002B07D1054B002B02D0044800E000BF0123237010BD2007002000000000B8DE0100084B10B5002B03D097
:4010C0000749084800E000BF07480368002B00D110BD064B002BFBD09847F9E70000000024070020B8DE0100C80000200000000010B50B4C200001F01DFC200001F01AFCF1
:40110000084801F017FC084801F014FC074801F011FC200001F00EFC200001F00BFC10BDD4E10100FCDF010024E0010038E0010010B584B00C004F2800D9D5E080006B4BCD
:401140001B589F46012001F063FF012001F054FF674A684B1A60684A684B1A60002001F0CDF8041E06D0664801F0E4FB6549200000F0F8F9644801F0DDFB02A80023837150
:4011800002F01EFC062404E0013C02AB185D01F0DFFB002CF8D15B4801F0CCFBA4E05B4801F0C8FBA0E05A4801F0C4FB2078594900F0C6F96078584900F0C2F9A078574929
:4011C00000F0BEF9E0784F4900F0BAF98CE0544801F0B0FB88E0534801F0ACFB2068062100F084F9474801F0A5FB7DE04E4801F0A1FB4E4B18780122002112F04DFD73E0AE
:401200004B4801F097FB6FE04A4801F093FB6BE0494801F08FFB20783A4900F099F963E0464801F087FB464B1878364900F09AF96388062B58D906236A461380538000232E
:4012400093806433D380394B1878694610F008FC04003C4801F06EFB2A49200000F078F942E0394801F066FB002001F047F8041E3AD0234801F05EFB2249200000F072F9C8
:4012800032E0324801F056FB20781E4900F060F92AE02F4801F04EFB20781A4900F058F922E02C4B1B78042B1ED12B4801F042FB012001F05DFB01F033FB01F023FB01F0CD
:4012C00013FB01F037FD0FE002221D4802F063FA0AE000221A4B1A7006E0002015F0F8FA02E01E4801F026FB04B010BDBCDE01003103000060F02E400203008008000340C4
:4013000068E00100D4E1010088E00100B8E00100D4E00100F4E0010004E1010014E1010020E1010060E1010084E101005C190020B0E10100D8E10100ECE1010008E2010002
:40134000481900202CE2010060E2010084E20100A8E2010054190020D4E20100F4E2010030B583B0FFF7C4FE62B6002001F000FB00F000F9012000F07BFB00280BD12D4BAD
:401380001B78002B07D12C4801F0D4FA012000F005FF01F0B7FB294800F038FF051E13D0274801F0C7FA2749280000F0DBF8032D33D1254801F0BEFA2249244800F0C0F8C9
:4013C000234801F0B7FAFEE7684602F0FDFA041E07D0204801F0AEFA1A49200000F0B8F81BE01D4801F0A6FA6B4618881B4C210000F0B8F86B465888210000F0B3F86B46DF
:401400009888210000F0AEF86B46D888144900F0A9F80C490D4800F0A5F800F009FB02F0F7FA052000F084FB052001F077FB00F0BBF8F4E714FE03000CE3010031110000E7
:4014400040E30100D4E1010058E301005412000090E30100A4E30100D0E30100E0E30100E4E3010070B504000D000A2101F0CEFF83001B185A00A41A2C6070BD30B585B0F4
:4014800000246946FFF7EEFF009B303301AA135501340028F5D1002307E0E11A013901AA505CD55C5554D054013362089342F4D301A80023035501F03DFA05B030BDC04680
:4014C00001220A2306E0834209D89900CB1859000B000132092AF6D900230A2200E00123002B00D10A2210007047C04670B506000D00FFF7E5FF0400A84204D305E00548AA
:4015000001F018FA0134AC42F9D33000FFF7B6FF70BDC046F4E3010070B504000025230E03D124020135022DF9DD04235D1B04E0200E01F00DFA2402013D002DF8D170BDEF
:4015400010B50C00FFF7E8FF200001F0F3F910BD10B50C00C0B201F0FBF9200001F0EAF910BDC04610B50C00FFF788FF200001F0E1F910BD10B5094B1B78002B0DD10848F9
:4015800001F0D8F90121054800F064F9054C200001F0D0F9200001F0CDF910BD0AFF0300F8E30100D4E1010010B5304B1B88002B0AD02F4A1278012A06D02E4A1278022A26
:4015C00002D00133294A1380284B1B882A4A93420FD1012000F04CFA002806D0274801F0A9F90022214B1A8012E0254801F0A2F90EE0244A93420BD9234801F09BF9FA2017
:40160000400001F08BFA012000F0C8FD01F07AFA01F07EF9002827D1F530FF3001F07EFA01F076F900281FD1174801F083F9FA20400001F073FA01F06BF9002806D11348C9
:4016400001F078F901F064F90028FBD0012000F00FFA002805D1013000F0A0FD01F052FA02E00B4801F066F910BDC046CC0000204407002054190020F055000014E401003A
:401680005CE40100276E000094E40100C8E40100ECE401000323044A1360044A13600022034B1A607047C0463000304030003140000E3F4010B50A00002102F075F810BD24
:4016C00010B502F019F803680C2B00D1FEE7FEE710B50300094A1068C318094A9A1A942189018A4202DC054A136005E002F004F80C2303600120404210BDC046D0000020FA
:401700006819002070B50F4E0F4D13E029686B68AC68002202E001C901C30432A242FAD1E868002202E0002102C304328242FAD11035013E002EE9D101F0E4FFFFF710FE05
:40174000FEE7C04601000000DCE8010010B5114A136801218B43136000230AE0032B03D89A000D49505800E00C4899000C4A885001332F2BF2D9FFF72DFC0A4B1B68002B96
:4017800002D10022074B1A60024A116801230B43136010BD00001040000F0000C116000000000020C0000020002306E04218013A12789B189BB2013989B20029F6D1584294
:4017C00080B2704730B5002307E01C182478E4B2CD5CAC4205D101339BB29342F5D3002000E0022030BDC046F0B583B00D006B469E1DDA8001230B7048701400AA70130A3E
:40180000CB70171DB9B22800FFF7CEFFE855631D000AE854A31D1722EA540734A1B296233200280000F0D6FF03B0F0BD70B505000E001400002802D0002001F04FF9002024
:4018400004E0013CAB19E35CC018C0B2002CF8D170BDC04670B5C0B00500000AFF232C009C43002304E01A5D6E46F25401339BB2FF2BF8D9FF231D406B4659550004000C1F
:40188000694601F085F840B070BDC04670B50500012811D80DE0611B4B425941C9B220024042064B9C466044FFF7D4FF0134E4B200E00024012CEED970BDC046D0FF030095
:4018C00010B50C2863D88000404B1B589F460B06591A0B023E4A9446634401225CE00B06591A0B023B4A94466344042254E00B06591A0B02384A9446634402224CE00B0672
:40190000591A0B02354A94466344042244E00B06591A0B02324A9446634401223CE00B06591A0B022F4A94466344012234E00B06591A0B022C4A9446634402222CE00B0685
:40194000591A0B02294A94466344022224E00B06591A0B02264A9446634402221CE00B06591A0B02234A94466344042214E00B06591A0B02204A9446634401220CE00B06F4
:40198000591A0B021D4A94466344042204E0002001F0A4F802220023012A02D11878C0B200E00020022A03D11978587800020843042A09D11A785878000210439A7812042C
:4019C0001043DB781B06184310BDC0462CE50100C0FF0300C1FF0300C5FF0300C9FF0300D0FF0300D1FF0300D6FF0300D2FF0300D4FF0300D8FF0300DCFF0300E0FF030008
:401A000010B500210520FFF75BFFC4B201210520FFF756FFC0B2002C02D0002804D106E0002803D0012002E0032000E0022010BD10B50D4B1B79002B14D1FFF7E1FF0B4B13
:401A400058705B78022B0AD0084B5B78032B06D0064B5A781A700122034B1A7102E00222024B1A7010BDC0463C070020D400002070B5050001000320FFF722FF441C2402FF
:401A800029000420FFF71CFF241829000320FFF717FF421C12020023002608E01078411EC9B2FD2900D801261B18DBB20132A242F4D35B42DCB229000120FFF701FF84423B
:401AC00003D1002E03D1062002E0062000E0002070BDC046F0B5474680B40500884617001E00012817D801000320FFF7E9FE013084B201210320FFF7E3FE80B2BC4201D89C
:401B0000B8420AD24346012B09D10848401B864207D0002006E00D2004E00D2002E0002000E00D2004BC9046F0BDC046FF030000F0B55F464E464546E0B4CB4CA544070054
:401B400001210220FFF7BCFE009000F02BFE62B60A2400239946002F01D1FF2300E03B00C24A02A98C4662449621490052A800F065FE002F01D0013CE4B2002C01D00028CE
:401B8000E9D1002800D0CFE2B84B02AA944663441B88062B24D952AA1278012A22D152A9CA78120289780A439146110007329A421AD896235B009A4218D84A1D52AB9D5C52
:401BC0002A02081D1D5C154306315B5C172B0FD181B252A8FFF7E8FD85420BD100260AE0042608E0042606E0032604E0032602E0042600E00826002E00D030E252AB1A79E6
:401C000093465A781300313BD9B2142900D9F4E18B009749CB589F46964B5B79012B00D01FE24B46012B00D01EE25B46012B00D91DE25846FFF71CFF002800D01AE25B4669
:401C40001B065A469B1A19028B4B9C466144382253A801F0A0FD562262E2864B5B79012B00D00AE24B46002B00D009E2834B5878C0B2FFF7FDFE4342434152AA1371012226
:401C80004EE27C4B5B79012B00D0FCE14B46032B04D00423FF33994500D0F7E152AA95792B0255791D434B46032B08D0DA1E4821FF3102AB9C46614407A801F06CFD5B46A3
:401CC000012B00D9E5E15802401900026C4B9D4200D90A26002E00D0DEE18022520007A9FFF770FD060000221AE2624B5B79012B00D0D3E14B46012B00D0D2E15B46012B9F
:401D000000D9D1E100210320FFF7DAFD83B20004400E834502D1DB05DB0D05E0834501D9002301E080239B0052AA13711B0A5371FF239371FE3BD3710422F1E14D4B5B79E4
:401D4000012B00D0B3E14B46012B00D0B2E15846FFF78EFE52AD287159460520FFF7B0FD68710222DCE1342A0FD1424B5B79012B00D0A2E14B46032B00D0A1E1CC323D4B25
:401D8000DA80002107A801F00FFD3A4B5B79012B00D098E14B46022B00D897E1354BDD8807AB58194B46DA1E4821FF3102AB9C46614401F0F0FC2B004B44033B9BB28022FE
:401DC000520093425ED152AB9D792D025B791D43284BDD802A4B9D4200D90A26002E00D077E15B465B029BB2ED18ADB2234B1B78002B05D101210320FFF762FD80B204E033
:401E000000210320FFF75CFD80B2013080B2854207D20022174BDA8080235B0099460A267EE1009B002B17D0144B5B78DBB2012B12D8124B5878C0B20E4BDB882A005946EA
:401E4000FFF748FE0D2807D100220A4BDA80060080235B00994663E107A9280000F098FD002810D00A260EE088FDFFFF6E02000060E501003C070020C0FF0300D40000204C
:401E8000FF01000003260022AF4BDA8080235B00994645E1AC4B5B79012B00D01EE10022A94BDA8040E1A84B5B79012B00D018E14B46012B00D017E15846FFF7D9FD002856
:401EC00000D014E15846FFF7E1FCA04B5A465A70002225E19C4B5B79012B00D00AE19A4BDD884B465A1996235B009A4200D904E107AB58194A4653A901F04DFC4D44924B3A
:401F0000DD8000220CE14B46002B00D0F8E004AA8F4B03CB03C28C4B01221A725A710022DA8053AA04AB03CB03C20822F8E0864B5B79012B00D0E6E04B46032B00D0E5E0ED
:401F400052AA93791B0255791D435B46590249190902804B9D4200D90A26002E00D0D8E0802252000020FFF761FC020001905B465B029BB2EB189BB2594601291AD1764934
:401F8000591889B2012915D8744A9D186B1E9D41EDB229000520FFF793FCC0B2019B1B1ADBB2984629000620FFF78AFCC2B243469A1AD2B2524252AB1A710122B0E0012173
:401FC0000B20FFF77DFCC30703D54022644B1A6009E05E4B5878C0B2FFF74AFD002802D180225F4B1A600022574B1A7200F0DCFB00F088FD0426002292E0534B1B689846FF
:40200000002B00D187E0504B5B79012B00D085E002AB1A704A465A8053AD03950C22002104A801F0C1FB04AE0695310002A8C047B2882623FF339A4203D953AB0699994278
:4020400007D0069B002B01D1002A05D1049BDEB266E00E26002263E00E26002260E000225EE0042600225BE00426002258E00C26002255E00C26002252E0042600224FE052
:40208000042600224CE00426002249E00426002246E00926002243E0002241E0042600223EE0042600223BE00426002238E00426002235E00426002232E0042600222FE0BB
:4020C000042600222CE00426002229E00426002226E080235B009946002221E0042600221EE0042600221BE00426002218E00C26002215E00426002212E0032600220FE04B
:40210000042600220CE00426002209E00426002206E0002204E00526002201E00526002252A93000FFF760FB002F00D113E5064B5B79012B00D10EE59E239B009D441CBCE1
:4021400090469946A346F0BD3C070020D4000020B4E50100FF01000002FCFFFF01FCFFFFC000002070B5C0B00500000AFF232C009C43002304E01A5D6E46F25401339BB282
:40218000FF2BF8D9FF231D406B4659550004000C694600F0FDFB40B070BDC04670B5050001281DD80206121A1302104A944663441B78012B16D0002400260EE0611B4B422A
:4021C0005941C9B223061B1B1802084B9C466044FFF7C8FF06430134E4B2012CEED902E0012600E00126300070BDC046D0FF03000023034A1370034A1370034A1370704724
:402200005F190020581900205E19002010B590B00400142228490BA801F0BDFA274B1B78002B04D1FFF7E4FF0122244B1A70002C3FD0234B1C60214B5B68002B08D1214818
:4022400001F086FA1D4B5860002803D0002002E0002000E00320002811D108A805AA426006AB0893002101811B311980598017391971002313701231694401F0E3FC00288D
:4022800018D10E4B5968002302930193053300930BAB0D4A0D4801F02BFC00280AD101220B4B1A701032FF320F210A4815F07CFD00E0012010B010BDBCE501004807002072
:4022C0004C19002054120000441000007524000054190020D0E5010010B501F0B7FB0022044B1A70044B5868002801D001F03AFA10BDC046541900204807002010B5022875
:4023000035D81F4B1B78042B33D11E4B1B785B0732D400280CD11C4B1A004032C82149001182A022596C0A805B6CA0325A800FE001280DD1144B1A004032C8214900118215
:40234000C822D200596C0A805B6CFA2212015A800E4B18700C48403012F02AFE00280DD1084A117804230B43DBB2137006E0012004E00420FF3001E00420FF3010BDC04608
:40238000541900205F190020D80000205E1900207047C04603784078000218437047C04670B5050083890B2B1FD1043035332A00002115F0AFFD041E11D16868FFF7EAFFB8
:4023C000830706D50A4B1B68290082204000984705E0074B1B6829000620FF309847054A137801218B43137000E00024200070BD4C1900205F190020024B00225A701A7021
:402400007047C0465C19002010B582B00400FFF7C7FF0E4B1B78DB0702D5200000F042F90A4B1B78DB070ED4002809D001A912238B70A3890B80C870206814F0EFF902E0D7
:40244000206814F087FA02B010BDC0465F1900208379002B07D000200BE0C25C002A07D10133DBB200E00023052BF6D9002000E001207047F0B583B005000C007C4A117836
:4024800001230B43DBB21370502800D9DFE08300784AD3589F4601AE0727377000237370300003F04BFF377001237370300003F045FF714B1E683000FFF7CAFF00280CD0F4
:4024C000300001F0ADFA6C4E00213068FFF760FF30680121FFF75CFF0BE0684E300001F09FFA00213000FFF753FF01213000FFF74FFF032012F0EEF901A83F23037000230A
:40250000437012F005FA04225D4B1A709FE022785C4B1A709BE02378002B00D097E06378002B0CD1584B1022DA800132FF329A80564A126856498C4662441A6063604C4A29
:40254000137801218B43137081E0494B1B789B067DD4504B1B78102B02D105224D4BDA704D4B18784B4912F0E1FC01AB1880002804D04A4B1B6801A9362098473C4A1178BD
:4025800001230B43DBB2137061E002223C4B1A705DE004223A4B1A7059E0394B1B78022B55D0334A1278D20751D5314A1278520708D50322324B1A702D4A137804218B43AD
:4025C000137044E02A4A1278120708D504222C4B1A70274A137808218B43137037E0032B35D10422264B1A702D4B1B78002B2ED10120FFF783FE002829D10322204B1A702E
:4026000025E002222100244801F0C5F800221D4B1A701CE0FFF7F0FE19E061882C23FF33994201D996214900208814F001F90EE02000FFF7E9FE0AE00D4B1B78DB0706D507
:40264000200000F06FF802E0200000F083F8084B1A7811231A4209D0054A137801218B4313700E4B1B6821002800984703B0F0BD5F19002024E701002C0100203001002035
:402680005419002058190020500700204C07002044100000BC0200205C1900204C1900205E19002010B583890F2B13D1F933194AD358DB0207D5041D402302000021200006
:4026C00015F028FC00E00620134A137801218B4313701EE00E2B1BD1041D323302000021200015F017FC8A235B000A4AD3585A680A4B1A60D3781B029278094C13430733DD
:4027000023800121A170044A13788B43137000E0002010BDD0E501005F190020601900205807002010B543681B890E2B0DD1037A012B05D1012014F0CBF80022034B1A80CA
:40274000034A137801218B43137010BD580700205F19002043681A890E2A1BD1427A012A13D11A680C4B1A60D3781B029278134307339BB2094A13800822FF32934201D95B
:40278000064B1A800122054B9A70054A137801218B4313707047C04660190020580700205F1900207047C04610B5084B187811F071FB002802D005E001F02AF9044B1B7850
:4027C000022BF9D0FFF788FD10BDC0465C19002054190020F0B585B006000C00150094235B00144AD3585868FFF7D4FDC3071ED58A235B000F4AD3585F68220031003800B5
:4028000000F0C9FF01A98C8001970E230B810A4A137850780002184314F048F8002801D12C8005E000232B800120404200E0042005B0F0BDD0E501005C190020F8B507002C
:402840000D0016009A00D3185C001DE001F0E0F8114B9B78012B13D10F4B00229A701A88AA4209D20D4B1968380000F094FF0A4B1B88338000240AE000233380062406E0ED
:40288000012000F04BF9013C002CDFD1103401F0BFF82000F8BDC04658070020601900207047C046014B18647047C0460000002010B5040000F039FC044A1368C0218B4303
:4028C000A4011C43146000F034FC10BD00E400E00122014B1A60704700E100E00122014B1A60704780E100E010B5FFF7F7FF0448FFF7D8FF0320FFF7DBFFFFF7E9FF10BD05
:40290000A12800000122014B1A60704780E200E0024B1868400801231840704704000440034A10680223184010604008C0B270471000044070B505000078012404E000F04A
:402940007FFB285D0134E4B20028F8D170BDC04670B504000309054DE85C00F071FB0F231C40285D00F06CFB70BDC04674E8010004490A68D2B204239A43800018401043D6
:402980000860704700020440002070470020704730B5C5B004000023439342933D4B984272D8002970D08022520002A800F0F3FE394B9C4201D9394B00E0394B0093FF236B
:4029C0000193384B6A461A603749384A1160C0461B681B0F1B07F0221206934204D1314B1B68FF2213400DE02E4B1B681B0F1B07A0221206934204D02A4B1B68FF221340E3
:402A000000E000234393439B002B3FD100F08DFB0500FFF7B9FF4290439B002B25D1244A0092009A2404144300941E4A6946116020481E490860C0461268120F1207F02171
:402A400009068A4204D1174B1B68FF2213400BE0144A1268120F1207A02109068A4203D0104B1B68FF2213404393429B002B07D1FFF78CFF4290429B002B01D0429B4393FA
:402A8000280000F056FB01E004234393439845B030BDC046FF030000FF010000B6D70001B6D70000080010400400008004001040B6D8000005000080024B1B680120184063
:402AC0007047C0460C002E401F2318401E3B8340014A13607047C04600E100E001BE704770B504000D001F2802D90020FFF7F6FF1034A40080239B059C4664442068256012
:402B000070BDC046034A13681B041B0C02490B43136070470CED00E00400FA0510B5040006E0084B586800F0F7FA074B9C46644480231B029C42F4D8024B9868604300F0EC
:402B4000EBFA10BDD00200200080FFFF10B5034B1B7B584300F0E0FA10BDC046D0020020F0B557464E46C0B483B0040000F0DDFA0190E71E2D2F74D83F4B1B78DBB29C4252
:402B800008D83E4B1B78DBB29A463D4B1B78DBB2994631E03B4B1B78DBB29C4208D83A4B1B78DBB29A46394B1B78DBB2994623E0374B1B78DBB29C4208D8364B1B78DBB2A4
:402BC0009A46354B1B78DBB2994615E0334B1B78DBB29C4208D8324B1B78DBB29A46314B1B78DBB2994607E02F4B1B78DBB29A462E4B1B78DBB299462D4BDE5D2F2E09D962
:402C00002A2C07D919222B4B1A60052000F084FA192503E0274B1D683F231D40B54206D9234BDA5D234B1A60052000F075FA1F4B9C4664442378DBB21F4A13601F4B5246E8
:402C40001A601F4B4A461A600520FFF77FFFB5420AD2174BDA5D174B1A60052000F05CFA02E00020FFF73AFF019800F062FA03B00CBC91469A46F0BD40F3FF0F41F3FF0FA2
:402C800042F3FF0F43F3FF0F44F3FF0F45F3FF0F46F3FF0F47F3FF0F48F3FF0F49F3FF0F4AF3FF0F4BF3FF0F4CF3FF0F4DF3FF0F88E801002CFF0B4028FF0B401CFF0B40EF
:402CC00020FF0B4010B504000F4A116801230B4313600E4A0E4B1A600E4A1368802109020B431360002809D100200CE00120FFF72DFFFFF7E1FE002804D1013C002CF5D12D
:402D0000102000E0002010BD60F02E400220000078002E4010002E4010B500F006FA044A136804218B43136030BF00F002FA10BD10ED00E010B500F0F8F91F4A13689B00C4
:402D40009B0813601D4A13689B009B0813601C4A13689B009B0813601A4A13689B009B081360194A13689B009B081360174A13689B009B081360164A13689B009B081360E0
:402D8000144A1368802109060B431360124B1B889BB2124A1360124A116804230B43136010490B68FF2293430E3A13430B6030BF00F0BFF910BDC046080004400801044021
:402DC000080204400803044008040440080504400806044000000B4050F2FF0F0C000B4010ED00E02C000B40034B1868C0231B02184000D00120704700010B4010B50D4BC6
:402E00001A6801218A431A601A68022082431A60094A10683024A043203C204310601068093CA043014311601A68802109060A431A6010BD00F02E4000FF2E4070B51D4B20
:402E40001B6801241C40002802D0012816D02BE0184B19680122914319601968022081431960154B19682E3081432038014319601968093881430A431A6018E00D4B1A68CF
:402E800002218A431A600C4A10680725A84301431160116830208143103801431160196801220A431A6002E00020FFF717FE200070BDC04600F02E4000FF2E4010B500F039
:402EC00034F9044A1368C02109020B43136000F030F910BD00010B4010B500F026F908490A68084B1A408024E40122430A600A6813408022120213430B6000F01AF910BD55
:402F000000010B40FF3FFFFF70B5050000F00DF90400FFF769FF002803D0FFF7DDFF012100E0002108482840084A1568084B2B40184310601368012901D1FFF7BFFF20003C
:402F400000F0F7F870BDC0460404040010020B40FBFBFBFF10B5244B1B685B0715D5234B5B685B070ED5224B596A042001401F4C62688A4362605A6A82435A629B69002BA0
:402F800000D098470420FFF7BFFF174B1B685B0518D5164B5B685B0510D5154B596A8022D2001140114842688A434260596A114A0A405A62DB69002B00D098478020C000F3
:402FC000FFF7A2FF084B1B685B030CD5074B5B685B0304D5064B1B6A002B00D098478020C002FFF791FF10BD10020B40E40200205C070020FFFBFFFF04490A68D2B204232C
:403000009A43800018401043086070470000044004490A68D2B208239A43C0001840104308607047000004400000000000000000000000000000000000000000000000000C
:40304000FEB5494652465B460EB407462E4909688A462E4A12682E48022100F0D7F903002A480068C0182A4900F0D0F906001F3EB346234A126801219140C9430C0001256E
:40308000002600F052F8814651460B6823400B605846043000F040F83800F040284090400B68234003430B60584600F035F80136072EF1D900200130012090400B682340E7
:4030C00003430B605846063000F026F8484600F030F8C046C046C0460EBC894692469B46FEBDC046C046C046C046C046C046C046C046C046C046C046C046C046C046C0461E
:40310000CC020020C8020020C4020020E002002000E10000000000000230800803D00138FDD1C046C046C0467047EFF3108072B6704780F310887047F0B557464E4645461D
:40314000E0B4C0B080460E0017008A18204B9A422FD80B0A99461C0200239C46002522E0B4420CD3BD420AD24246515D6A46D1542278D2B28A4200D00120013502E02278EA
:403180006946CA540134013301E000200023FF2BE6D9002804D069464846FFF7F9FB844601239A46D144BD4205D26346002BECD001E001239C466346012B02D901235B4208
:4031C0009C46604640B01CBC90469946A246F0BDFFFF03000160704701607047324B1A781202324B1B781A43314B1B781B02314909780B4330498B4201D1072A06D0D421EB
:4032000009018B4206D1042A04D102E02B4B042200E02A4B2A490B602A4B1A602A4B1B781B022A4A1278134380229201934202D0002B02D002E0264B00E0254B254A136066
:40324000254B1B781B02254A12781343244A934205D0244A934204D0052B05D103E0224B02E0214B00E0204B204A1360204B1B681B09204A1268AA2A15D1012B13D9164BBB
:403280001B780E2B0FD11C4B1B781B021B4A127813431B4A13601B4B1B781B021A4A127813431A4A1360704759F1FF0F58F1FF0F5FF1FF0F5EF1FF0F580B0000580D000014
:4032C0006C002E4074002E405BF1FF0F5AF1FF0F0220000078002E405DF1FF0F5CF1FF0F0F0F000005050000050F000080002E40EC0F00F0E00F00F06DF2FF0F6CF2FF0FD3
:4033000084002E406FF2FF0F6EF2FF0F94002E4010B5FFF71BFC10BD10B5FFF7FFFB10BD10B500F051F810BD10B500F055F810BD10B500F051F8034800F030F8032000F08D
:4033400033F810BD0534000010B5024800F04CF810BDC0460534000000487047010200002B2070472B2070472B2070472B2070472B2070472B2070472B2070472B207047BB
:403380002B2070472B2070477047C0462B2070477047C0460120704701207047014B18677047C0460000002010B50400FFF7BDFE044A1368C0218B43A4011C431460FFF7D5
:4033C000B8FE10BD0CE400E080225201014B1A607047C04600E100E080225201014B1A607047C04680E100E010B50400FFF7F4FF2000FFF7D3FF0320FFF7D6FFFFF7E4FF27
:4034000010BDC04610B51AF043FD10BD002243088B4274D303098B425FD3030A8B4244D3030B8B4228D3030C8B420DD3FF22090212BA030C8B4202D31212090265D0030BB3
:403440008B4219D300E0090AC30B8B4201D3CB03C01A5241830B8B4201D38B03C01A5241430B8B4201D34B03C01A5241030B8B4201D30B03C01A5241C30A8B4201D3CB02BD
:40348000C01A5241830A8B4201D38B02C01A5241430A8B4201D34B02C01A5241030A8B4201D30B02C01A5241CDD2C3098B4201D3CB01C01A524183098B4201D38B01C01ACF
:4034C000524143098B4201D34B01C01A524103098B4201D30B01C01A5241C3088B4201D3CB00C01A524183088B4201D38B00C01A524143088B4201D34B00C01A5241411AA6
:4035000000D20146524110467047FFE701B5002000F0F0F802BDC0460029F7D076E7704703460B437FD4002243088B4274D303098B425FD3030A8B4244D3030B8B4228D338
:40354000030C8B420DD3FF22090212BA030C8B4202D31212090265D0030B8B4219D300E0090AC30B8B4201D3CB03C01A5241830B8B4201D38B03C01A5241430B8B4201D305
:403580004B03C01A5241030B8B4201D30B03C01A5241C30A8B4201D3CB02C01A5241830A8B4201D38B02C01A5241430A8B4201D34B02C01A5241030A8B4201D30B02C01A19
:4035C0005241CDD2C3098B4201D3CB01C01A524183098B4201D38B01C01A524143098B4201D34B01C01A524103098B4201D30B01C01A5241C3088B4201D3CB00C01A52415D
:4036000083088B4201D38B00C01A524143088B4201D34B00C01A5241411A00D201465241104670475DE0CA0F00D04942031000D34042534000229C4603098B422DD3030A58
:403640008B4212D3FC22890112BA030A8B420CD3890192118B4208D3890192118B4204D389013AD0921100E08909C3098B4201D3CB01C01A524183098B4201D38B01C01AE3
:40368000524143098B4201D34B01C01A524103098B4201D30B01C01A5241C3088B4201D3CB00C01A524183088B4201D38B00C01A5241D9D243088B4201D34B00C01A524194
:4036C000411A00D20146634652415B10104601D34042002B00D54942704763465B1000D3404201B5002000F005F802BD0029F8D016E770477047C046014B18687047C046EB
:403700001C0700200E4B70B500251E000D4CE41AA410A54204D0AB00F35898470135F8E71BF0CAF8084B00251E00084CE41AA410A54204D0AB00F35898470135F8E770BD9A
:40374000C4E80100C4E80100C4E80100CCE8010010B5034B0100186800F07AF810BDC0461C07002010B5034B0100186800F024F810BDC0461C07002030B50024A24208D006
:40378000035D651C0C5DA34201D0181B02E02C00F4E7002030BD002310B59A4203D0CC5CC4540133F9E710BD03008218934202D019700133FAE7704770B50500002944D028
:4037C0000C1F2368002B00DAE418280000F0B2F81E4A13681100002B02D16360146031E0A3420DD92268A018834203D118685B688218226063600C6024E0A24203D813000C
:403800005A68002AF9D11E689819A0420BD12168711858181960824214D110685268411819605A600EE0A04202D90C232B6009E021686018824203D1106852684118216088
:4038400062605C60280000F076F870BD44190020032370B5CD1C9D43083506000C2D01D20C2501E0002D01DBA94202D90C23336048E0300000F05EF8234B1C681A002100C9
:40388000002913D00B685B1B0DD40B2B02D90B60CC181EE08C4202D1636813601AE04B6863600C0016E00C004968E9E7174C2368002B03D1300000F02BF8206029003000ED
:4038C00000F026F8431C18D00323C41C9C43A0420DD12560300000F02EF8200007220B30231D9043C31A0ED05A42E2500BE0211A300000F00DF8431CEBD10C23300033608B
:4039000000F019F8002070BD4419002040190020002370B5064C050008002360FDF7D8FE431C03D12368002B00D02B6070BDC0466419002070477047134A1088810703D07D
:403940008107890F401A001D11791030484381B25088820703D08207920F801A001D800040180A494030098980B2CA0701D0503080B2890706D504495422091F09785143F5
:40398000081880B270470000F20200209007002010B502F045F910BD10B502F025FB10F0A7FA10BD10B502F027FB10F0A9FA10BD10B502F03BF910BD10B502F04DF910BD61
:4039C00010B502F065F910BD0121002808D0FF214731C1800321018004214180002181800846704710B50848FF2400680534401C08D106480068002804D102F0ADF9FE28B9
:403A000000D00024204610BD880400201C06002010B500F099FA10BD10B502F0F3F910BD10B50749044609780220002907D1204602F02EFA002802D1204611F02BF910BD16
:403A40009E04002010B502F055FA10BD10B50CF049FD02F001F902F005FA084C2078002801D000F07BFA00F08FFAFF2001F0AEFAFF2001F0BBFA0020207010BDEC02002002
:403A800010B50CF02FFD02F0E7F802F0EBF900F065FA074908460C380CF006FD002806D10CF02CFD002802D1024A0121117010BD90070020EC02002070B504460120002CE6
:403AC00012D02368002B0FD0616800290CD0074D06222889208118462968FFF75CFE6968606809780170002070BD000090070020FFB585B0002768460E9D07734F481C4609
:403B00000078002802D0082009B0F0BD10990F9801900095029105A807C800F007F90028F2D16946264603AB84460873002C19D0002115E08A00B75A082F09D99019807897
:403B4000002805D0083FB7521878401C187005E0002914D00027B75290198770491CC9B2A942E7D360460028CED10F98002809D0109901F0F5FB002804D00120C4E70120B5
:403B80008446EFE702F068F82D480021416081600599016021888180022D07D3A1798171A17AC171A1890181218A418100211EE0481C19E082008B00A75AE65ABE46BE4209
:403BC00011D26F463E80B4461E190296B678BE7001967646E6521719029EBB78B3706646A652019EBE70401CA842E3D3491CA942DED3134822460C3000906846037B0799D0
:403C0000069800F01BF90028B8D168460B4C007B60700B480C3002F0CDF80028AED1084907480C310CF040FC0028A7D10CF066FC0028A3D10121217066E70000EC02002037
:403C400084070020F8B5054636480F460078002802D002242046F8BD002F60D000243249002D16D02A89D0070DD02868002808D003881B3BE12B04D24088FB2801D81B2849
:403C800001D2012409E0900707D56868002804D1F7E70020088108604860002CDAD122482E8906811F481B21801D01804180042101711C490020891C0870F00705D01948E5
:403CC0000622801D2968FFF766FD1749B00703D56A68144812788270124D0E46AD1D281F0D60486002F0FAF8284602F0E9F8308915F0D6FC308914F067FC288814F06AFCB4
:403D0000308915F061FE03461033FFF715FE1F21C018890140183880A91F88809AE7012498E70000EC02002090070020FFB58446384F1C460020BB883F7805460246064605
:403D4000002F11D100290ED0029999420BD36146002908D0002C06D00A99002906D02E4B0B99994202D2012004B0F0BD002144E0AB001F19BF78002F3BD0E35A002B38D034
:403D80007B43591889B22B0000F04AF8050410161C253100A7782388BC46FF27233BEB37BB4222D26346032B1FD322E0A388002B1FD0302B19D31CE02389002B19D0282BD2
:403DC00013D316E0A289002A13D01346134F233BBB420AD20DE0268A002A0AD033460F4F233BBB4201D2964203D901200EE0002001E000280AD16D1CEDB2099B9D42B7D31B
:403E00001C2463435B1802998B42ACD89642AAD8AAE70000EC02002079020000BAFF000030B47446641E2578641CAB4200D21D46635D5B00E31830BC18470000FFB583B069
:403E4000002469460C801F4606468C80002806D00598002803D004983043800701D0012466E0002FFBD03449049809888842F6D3FFF76AFAFFF758FA00F06AFC002855D141
:403E800000F0D4FD002851D12C49084601F09CFA05042D0C4AD12A480499066081800021C18007810C98007AC00704D0684601F04BFF040007D10C98007A800703D501A84C
:403EC00001F06AFF0446BF1DFEB2002C20D13146059800F085F804001AD115F083FD040016D16A461088928808368518144AF1B29088D288AEB29319984207D3401B801A30
:403F000080B201F053FD050007D000E0FF25012400F0B6FA002D04D008E0F8B200F044F9F6E700F0D9FA07490120087000F022FC204607B0F0BD0000F0020020CD40000029
:403F40009C070020F802002010B503480078012801D101F0CDFB10BDF802002010B500F003FE002803D100F009FC002801D0FF2010BD0448007A801DC0B200F02DF90020AA
:403F800010BD00009C07002010B500F009FE01F04DFA0449002008608880C88008810249087010BD9C070020F802002070B5084B0446DA889E8800205518B54206D81D6831
:403FC000AA182260DA885118D98070BD032070BD9C07002001480089704700009C070020F0B587B007460D4600208900009006916846FFF7DBFF844600285DD130480099D2
:404000000160002117E02E4B88001A680629115406D22C4C0419667882185670628805E0C419203CA67A8218567022891B68C018491C4280C9B2A942E5D300242DE0601CC5
:40404000C2B2059025E01E4FA30039689600581840887118039604904E88B04217D938466F46FE80B6464F786E4677710297049F4F800168039F5E18767879184E70016803
:40408000764659184E800068029F18184770521CD2B2AA42D7D30598C4B2AC42CFD36046002809D168460699FFF780FF8446002802D1054900980860604607B0F0BD000063
:4040C000FC020020F0E80100000300207047000010B5002809D005494A68002A05D0011F08788000105801F00FFC10BDFC02002010B50446FFF76EFFC0B2801DA0420CD379
:4041000007484068002808D0A100405801F06EFB002801D00470001D10BD002010BD0000FC020020F8B516460D460446FFF752FFC0B2801DA04203D20020C0430090F8BD78
:40414000B2B2E9B2684601F077FB0099481C03D0024AA000526811500098F8BDFC020020F8B50746FFF736FF801DC6B20A49002005460C680DE06178002907D06188B942D7
:4041800002D32078FFF7B4FF002804D1241D6D1CEDB2B542EFD3F8BDFC02002010B5002801D0FFF795FF10BD70B506460948002504680BE06178002905D062882078121D1C
:4041C0000023FFF7AFFF241D6D1CEDB2B542F1D370BD0000FC020020F8B5084F064600243D6808E0287879688000085801F038FC2D1D641CE4B2B442F4D3F8BDFC02002012
:40420000FFB581B00A9F16000C4620D000F0F2F8054604281BD0002F0CD03846FFF7A0FF20492A0151184860002810D03A460499FFF7B1FA1B4928010E50461877810198F9
:404240000570200406D47D20C000444304E0FF2005B0F0BD6404640C00F0BAF80746042807D000F06BFAA0420BD800F067FA201A03E0204600F0C8FA0020F06035720020E1
:40428000E6E700F05BFA009000F0D4FA00980121001B009000F008F902493A0151180098C860E6E7A8070020F8B5060116483418217A042903D0E068002802D017E00020AB
:4042C000F8BD00F03BFA054600F0B4FA00F0A0F804280CD001010C480F18F8680021451900F0E2F80020F860284600F08DFA6068054D002801D0FFF751FF042020720020B9
:40430000A8516081E060DAE7A8070020FEB500266A46304601232549050169180D7A042D02D0C96800291BD000211154401CC0B20428F0D300246846005D002830D01B48EF
:40434000210108184189476805680291002101604160042241810272C160002E02D015E01354E3E700F054F804280ED001010F4808180190C6680021304600F095F8019891
:404380000021C160304600F03FFA0126002D07D038460299A847002F02D03846FFF7FEFE641CE4B2042CC6D3FEBD0000A80700200EB5002005216A46009011815081034818
:4043C0006946006817F04BF80EBD000004030020074A0020010189180B7A042B02D0C968002903D0401CC0B20428F3D370470000A80700200549002002015218127A042AC8
:4044000003D0401CC0B20428F6D37047A807002030B50A4B04200A4C00210A011219157A042D06D0D268002A03D09A4201D808461346491CC9B20429EFD330BDFFFF000072
:40444000A807002070470000F8B500250B4F2E462801C419217A04290AD0042121723E506068002802D0FFF799FE66606681E6606D1CEDB2042DEBD3F8BD0000A80700204B
:4044800030B50020074C05460423020111190B72A5504D60401C4D81C0B2CD600428F4D330BD0000A807002030B5094C00231A011219157A042D04D0D568002906D02D18B6
:4044C000D5605B1CDBB2042BF1D330BD2D1AF7E7A8070020002070471CB5002469460C70142001902346054A054816F0BDFF04480068401C00D1FF2420461CBD554500004F
:40450000040300203EB5124A0146FF2000230124126800290DD0012914D0042908D104206946009308814B81104616F098FF80B23EBD68460093048143816946104616F053
:4045400089FFF4E768460093048143816946EBE70403002070B545890468416800890300FFF75EFC08280509091E2228262800200AF076F91EE0022908D0C8B22A462146EA
:4045800013F06EFF2046FFF709FE13E002202A46214613F065FF2946204600F00DF809E0002015F071FE05E02046FFF7AFFE01E0FEF7EEFE002070BD014B0022DB68184781
:4045C0000803002070B5448905680089022803D0032809D0FF2070BD2246094C0023A46829460120A04708E0FFF7E6F9241DA2B20023294602200BF00AFE002070BD0000A2
:4046000008030020704770470248002141600180418070470803002070B50C46002186B016460391012802D0022859D116E003A901200BF041FE01281BD1039D3246214613
:404640002846FFF7A8F80095287801900220694608814E816846FFF7B5FF41E0214D002B686809D0049004A902200BF025FE01281DD0022006B070BD002812D029884018DD
:404680002146FFF788F828880024801980B228806988091D884206D12C801348FFF792FF03E00320E6E788421AD96C6018E004986860E278A378110219430B4A6980002393
:4046C0001060E3565360032313815181A1788170E178C1706178417021780170042028800020C7E708030020E80700203EB515460C46022803D004280CD000203EBD009185
:40470000019002206946088107484A81006816F0A6FE07E013F0A4FE044B0022DB6829462046984701203EBD0403002008030020014AD160906070470803002003480168FE
:404740008068081A0A21484300097047F407002010B5FEF7EDFD482204490548FFF71BF803490120C870002010BD00000CE90100F80B002010B5FEF7D3FD10BD0020704714
:4047800070B5134C2368002B08D0207B1149C20705D04008400020738868A08070BD88680B4AA18880B29268814203D90A4D691A091802E0814202D2411A5118A160A0806A
:4047C000A0689842EAD316F067FE00F013F870BDF4070020C0102E40FFFF000010B508461946FFF7A5FF10BD704710B5FFF77EFF10BD000003480021016041608160C1602B
:4048000070470000F4070020024610B5FF20002A0CD0FFF7EFFF064C0321207B0843207310010A21FEF778FE2060002010BD0000F407002000B504480A21806848430209C8
:40484000FFF7D8FF104600BDF40700200248007B8007C00F70470000F407002010B54B490868002802DA4A4B01221A70022290430860484800694549C00B4031096A024664
:40488000C907C90F0A4259D0012000F09FFB3F480E216C30FEF7A0FC3E4820218430FEF79BFC3C4814219C30FEF796FC3948FF21C131A430FEF790FC3648FF212F31B03074
:4048C000FEF78AFC33483449BC30FEF785FC31483249AC30FEF780FC30492E48491CB430FEF77AFC2B482E49B830FEF775FC29482C49CC30FEF770FC26482B490830FEF775
:404900006BFC24482949A830FEF766FC214828498830FEF761FC1F4826498C30FEF75CFC1C481921C9029030FEF756FCFEF756FCFEF712FDC0B2022812D01FE000290BD004
:40494000002101420AD0114801216030FEF744FC0120FEF7E1FC97E70121F2E7FF2010BD15491648FEF738FC14481549001DFEF733FC124800210830FEF72EFC54200449EE
:40498000C043891C0870002010BD000000F02E401803002000002E40320300002F3F00003102000010520000EC160000FA12000031D000003AE300009956000080012E40A1
:4049C000F80F000070B50646581C80B245086D00002408E0304600F0C1F81055000A1119A41C4870A4B2AC42F4D3D80705D0D0182038D15CC47FD454C17770BD30B50A4C6C
:404A0000002100195B1E07E0541864782502545C2C430480891C89B29942F5DB994201D1515C018030BD000000102E4010B5FF2000F0CCFA0F49FF2048700E481021801D0C
:404A400041800121417001700A490020C91C4870FFF704FF04000AD100F02EF907210648FEF7B8FB044807211830FEF7B3FB204610BD000018030020CC112E4070B50024B3
:404A800005465B1E0AE0284600F068F8010A161971702D1D1055A41CADB2A4B29C42F2DB9C4203D1284600F059F8105570BD000070B500210A4D5B1E0AE05418647826023D
:404AC000545C344346193480001D891C80B289B29942F2DB994202D1515C4019018070BD00102E40F0B50599091FCFB200217E1E0BE0541864782502545C2C43164D4519E2
:404B00002C80001D891C80B289B2B142F1DBFC0712D01C78515C24020F4A0C4381180C809C785D78001D210280B2294384182180001D80B2D9780CE059781A780902114370
:404B4000054A84182180001DD9789B78090280B2194380180180F0BD00102E40014940180088704700102E4010B50B490020487000F0A2F8002000F04FFA002000F03CFAD2
:404B800007210648FEF726FB044807211830FEF721FB002010BD00001B030020CC112E4010B50C48007801280FD101F023F900F0DDF8002804D10848016A49084900016205
:404BC000054802213030FEF707FB02490020C91E087010BD1B03002040F02E4010B50B46062812D006DC01280CD0032801D1FFF7BBFF10BD0A28FCD00B28FAD10548007833
:404C0000107010BDFFF712FF10BD1146184600F01FFA10BD1E030020F8B5244DAC6A0127A007234E002816DA307806280ED1286A384328621F480069F903084381B21D4800
:404C40001030FEF7C9FA042000F0C0F9174802212830FEF7BFFAE00718D001F031FA01280FD1002001F03AFB062000F0AFF91049FF20C91E48707078002802D1686B3843A7
:404C800068630A4801212830FEF7A4FAE0050BD53078042802D1052000F098F90348FF2101312830FEF796FAF8BD000040F02E401B03002000002E4010B503212348FEF7F6
:404CC0008BFA0120FEF724FB20483038406A204C80076178800F890001431C480C38FEF77BFA6078002808D0401E022181401820FEF7FCFCC000083800E0B82081B21548BF
:404D0000FEF76AFA1348032109021438FEF764FA10481149B830FEF75FFA612189010F48FEF75AFA0D480321001FFEF755FA0C490C48FEF751FA0B480B496038FEF74CFA1E
:404D4000084801218838FEF747FA10BD70F02E401E030020D8102E4090890000041E2E40FF0F000058122E4020900000044800684007400F022801D0002070470120704766
:404D800000010B4038B5FEF7E7FA01F0B7F803211948FEF721FA0120FEF7BAFA16483038406A04218007800F084381B2009012480C38FEF711FA11480168022211430091C3
:404DC00089B2FEF709FAB8210D48FEF705FA0C48032109021438FEF7FFF9094C5321D83C2046FEF7F9F907210648FEF7F5F954212046FEF7F1F938BD70F02E40001F2E4015
:404E0000D8102E4098142E4000B5FFF7AFFF002805D009480168C908C900016000BD0748016A490849000162054801690122D2039143016100BD000000010B4040F02E40F7
:404E400000002E400849087806280BD148780749002803D1486B400840004863C86A01221043C862704700001B03002040F02E400121002807D005494A8842804A7842701B
:404E80000978017000210846704700001E03002001480078704700001B03002002484078022800D0012070471803002000B50300FEF7B6FF080D050D0B070507090D0120F6
:404EC00000BD032000BD042000BD022000BDFF2000BD0000074A9168D26889B2064B92B2994204D105498A4201D1012100E000210170704780002E4033D000003FE300002B
:404F000001494870704700001B030020F8B504460120002C52D0217808294FD2617804294CD26088102166283DD800283BD065882348662D45801BD801270026BF020A2D2D
:404F400033D90A212846FEF7E7FAC0B2072800D907200A2141438D4204D9691ACEB21F2E00D31F264101314339431648FEF732F9134D60786870217829701349496A8A07C0
:404F800081001148920F11432430FEF725F9687800280CD0401E022181401820FEF7A6FBC000083804E06180C1E72946DCE7B82081B204482030FEF70FF90020F8BD0000AF
:404FC0001E030020B8102E4040F02E4010B50446FEF7AAF9072C01D9FF2C01D102480470FEF79EF910BD00001B03002001494870704700001803002010B5064A012805D08F
:405000001921C9021046FEF7E7F810BD1D21C902F8E7000090002E4010B50A4A141D012808D009491046FEF7D7F808492046FEF7D3F810BD04491046891CFEF7CDF8034945
:40504000491DF3E788002E4031D000003AE3000070B50C460546FEF77FF9C0B202280E49287804D0FF2810D04C280CD810E0FF2809D10A4AD0680004800F032801D008785B
:4050800007E09069000A553803E00878207070BD4F382070087070BD1A03002000002E40F0B50122002834D0002932D00424420600D00524792342065B06D21800D0641CEB
:4050C000034600221EE00C2516466E43124D00277519AF72104F002ABB51696007D0661EB24209D10D4E86197606760E05E05E06760E8027BE1B00E080269B198919521CBC
:405100002E81D2B2A242DED303480549006B002288611046F0BD0000800A0020790200002403002018B50020694608700A48006900280ED0132149014018047E68460470DA
:405140004F21C900054800F0A7F8A04201D0012018BD002018BD00002403002004080020F1B582B000206A4610700299002903D101F06AF900283AD11E4F00240C21264698
:405180004E43F519A97A01291DD11B49B859896988420BD14F21C900786800F07DF869460870132279685201891808762A89B9596868FDF7C1FF00280CD028200299002982
:4051C00005D0282803D0641CE4B2062CD6D3641CE1B20AE00021A972F0E70C224A43D219927A012A04D0491CC9B20629F5D3FEBD2820FEBD800A002024030020074900200F
:405200000C2242435218927A012A05D0401CC0B20628F5D30020704701207047800A0020F8B50E000446154609D0194F19497868A04202D94018A04201D38D4201D90120B0
:40524000F8BD31462046FEF797FA00281ED02A4631462046FEF79FFAE8B200210C224A43D21913895568EE18A6420BD90126641B1B1B9672834209DA1469C01A044AC0B2F6
:4052800020329676491CC9B20629E7D30020F8BD800A002079020000034610B50020024604E09C5C2018521CC0B292B28A42F8D310BD000070B500F063F8084C064A21691D
:4052C00007480D46FEF767FA05492846FFF7E8FEFFF728FF207070BD79020000240300200408002010B500F04BF810BD002070470020054A002902D0012902D002E0906082
:4053000000E0D060002070472403002070B5084C154608460549E26889182A46FEF73BFAE0684019E06028B270BD000004080020240300203EB50A226946FFF7E7FF0446FB
:4053400006480A2200686946FEF716FA002802D00020C0433EBD20463EBD000028030020002802D0044A914201D2FF20704703494A61086100207047790200002403002016
:40538000024800218160C160704700002403002070B5074C15460548A26880182A46FFF73FFFA0684019A06028B270BD040800202403002010B503490A220968FFF7E8FFB6
:4053C00010BD00002803002010B50F4A002313600E4A13600E4B18600E4801600E49012008600E490860000290600E490C4808600D4914300860FF381538506000F0BEF80E
:4054000000F0CCF9002010BD58030020400300206C030020700300205C0300204C030020C80B0020500300206403002000207047014610B50020002910D0094B1A689C6809
:405440005118A14209D25868196080188A0704D08A07920F891A091D196010BD002010BD40030020F8B50024164E671E321F3D463168136806E01422624310328A58521C49
:405480001BD0641C9C42F6D36A1C14D02C461422544322460C3288500C214843FFF7C8FF3168002808510AD031680020103408517068401C70602846F8BD2546E4E7384619
:4054C000F8BD000050030020F3B50026F64381B000281BDB1E490968884217D80299002914D01B4F142204463F1D54432546396810354859401C09D0FDF716FF38682F1FFA
:405500004159C359994203DBFDF70AFF3046FEBD214608310091465801590C20704308180C220299FEF737F90948761C001D0068C159B14200D100260549009A091D865068
:4055400008684159491C4151FDF7EAFE0020FEBD4C030020002803DB07490968884202D90020C043704704491422091D0968504310300858704700004C030020F0B5002086
:405580000D4A451E0346171F50600FE014260146714314680E1DA3510C461668083433511668083435511468401C635039688842ECD30020F0BD000050030020F3B50026B0
:4055C000F64381B0002841DB2349096888423DD8029900293AD0204F142204463F1D54432546396810354859401C2FD0FDF79CFE3868415900292BD0211D009146580C21BE
:40560000005971430F46C1190C220298FEF7C3F811480021001D0068761C00590C34C0190160416081600C48001D00680159B14200D100260849009A091D865008684159C2
:40564000491E4151FDF76CFE0020FEBD3046FEBDFDF766FEFAE700004C030020FEB504460D4600201E49089E0860471E009001900290002C11D0486885420ED2002A0CD0B8
:40568000002E0AD0642E08D808460C3001681C2068430C18207A002801D03846FEBD0120226020721846FFF7DDFE6060401C13D06681A6810A4827610C3067610179A942F2
:4056C00000D205710021684601810A462846029B00F040F82846FEBD00202072DDE700005803002038B50124009400F039F838BDFEB50027164EFF433D4600240EE01C2067
:40570000316860430818017A002906D04068FFF721FF002801D0254603E0641C3079A042EDDA681C12D01C2130684D434419FDF7FBFD69466068FFF741FF0546FDF7F0FDCF
:40574000002DD9D1216868468847D5E7FEBD00006403002038B50024009400F001F838BD1FB500220C49541E0A60002811DB496888420ED808491C220C310968504308183F
:40578000406801A9FFF7A0FE401C02D0002004B010BD2046FBE7000058030020F0B50021114A4D1E174611710C3F0B46BD6016E008461C2460431668041D35511468064639
:4057C000235014680836A3551468361DA353044616680A34335318301468491C255078688142E5D30020F0BD6403002038B500210091002811DB0F49097888420DDA0D4D4F
:4058000004010C3529680859002807D0201D0818694600F06FF9002801D0002038BDFDF783FD28680F34015D491E0155FDF778FD009838BD74030020F7B582B00025029833
:405840006E1E06602E48D21C024017462D4A2C4610460C380178106805E02301C358002B0FD0641CE4B28C42F7D3711C28D03401211D40180191039900F02AF900281FD13A
:4058800001E02646F1E71F48016820460C300F521C480399026820460E30115419480399026820460F3011540398784300F0A0F8144900280968085102D00024009011E068
:4058C00001251AE00F48016801980818009900F02CF9002801D0012502E00098C0190090641CE4B203988442ECD3002D05D10298066004480179491C0171284605B0F0BDB9
:40590000FCFF000080030020F8B50D4600216A468C461180002839DB23490978884235DA214B04010C3319680A59002A2ED020460C300B5A801C0E5C18467043801895424A
:4059400024D3854222D2002006E007465F43BF18AF4206D0401CC0B2B042F6D36046002814D0114E271DC8190C366A46294600F006F900280AD168460088012808D0306801
:405980002946C01900F0D1F8002803D00120F8BD0020F8BDFDF7C8FC30680F34015D491C0155FDF7BDFCF3E774030020F8B50F46002400F031F8002817D10C4900220B465F
:4059C0000C334A600EE021011D680E466A501D680C36AA53B61C1D680F31AA551D68641C6A54E4B2BC42EED31A71F8BD7403002000280BD0C01C074A8108506889005388FD
:405A00004118994203D8936851601818704700207047000074030020F8B5064600200F4D009029700C0121466846FEF7BFFA00280CD129460C3100980860301B001F84B297
:405A400021466846FEF7B2FA002801D0FF20F8BD6C800098A8600020F8BD000074030020F8B5002827DB19490978884223DA174C05010C342168485900281CD028460C3099
:405A8000085A009028460E300E5C401C0E5420682F1DC01900F064F800280CD12068002445590EE0094829460C300068C01900F03CF8002801D00120F8BD00982D18641C5D
:405AC000E4B2B442EED30020F8BD00007403002030B50D4604000BD0A800FFF789FF6060002805D000202570C0436080002030BD012030BD70B50D46040005D0002D03D0EF
:405B00000220205E002801DA012070BDFDF70CFC0221615E60688900405828606088401E6080FDF7FDFB002070BD70B50D46040007D0002D05D002212078615E401E8142D6
:405B400001DB012070BDFDF7EFFB6088401C00B26080616880000D50FDF7E2FB002070BD10B5040009D0227800216068FDF71CFE0020C0436080002010BD012010BDF0B5CD
:405B800000231D46002802D00224045F0AE00120F0BD46689F00F6598E4201D1012503E05B1CDBB29C42F4DA15700020F0BD00000148007870470000880300207CB505463C
:405BC0000024FDF7F9FEA8796946087000A8062229460130FDF7DFFD0021684609F02AF90C2806D0072806D01F2806D0122806D006E0022404E0042402E0272400E001249D
:405C000020467CBD10B50024FDF7D6FE0021084609F014F90C2800D10224204610BD00000148012141727047000D002010B502280BD0032802D0042809D102E000F0EEFCB6
:405C400005E000F099FDFF2801D100F0A9FDFFF71FF9FFF72BF910BD10B500F0D1FDFFF717F9FFF723F910BD10B50024FFF7F4FF012808D10548818B03E0481E0140641C96
:405C8000E4B20029F9D1204610BD000060102E4070B504460025FDF78FFE002C06D0A079012803D8214603F043FF00E00125284670BD0000FEB505460D208001019000207C
:405CC0000C460090002D11D0002C0FD0FDF774FE1B48878B008B742186461948603801800020287001461748844622E001200090FEBD0120884086B21148019A60381018FD
:405D00000388028800883E4211D02E78761C2E7023701B0A6370A270120AE2702071000A60717046C840C007C00FA071E41D491CC9B2604600788842DBD80098FEBD0000E4
:405D400060102E40380C002001460120002902D0502008800020704770B5084D0024284603F023F9002807D0FDF726FE284600F0E9FD012800D1FE24204670BD600C0020FE
:405D800001460120002903D00248007808700020704700008A03002001460120002905D0034854220078504308800020704700008A03002010B502460D49FE204870032423
:405DC000104615F06FFE002810D115F013FE00280CD10AF0CDFA002808D100F05FFF002804D109F027FB002800D10024204610BD88030020024800210182802101807047CD
:405E000000102E4042680121002A08D00268002A05D004494A600449406888600021084670470000000D0020880300207CB505460024FDF7C1FDA8796946087000A8062271
:405E400029460130FDF7A7FC0021684609F004F80C2802D01F2802D002E0022400E0072420467CBD10B5FF2415F094FE002804D115F0C0FD002800D10024034900204860E7
:405E800002494872204610BD88030020000D002070B50025044600280ED0A07901280BD8FDF78AFDA0790028204602D004F0EEFA03E004F0C3FA00E00125284670BD00000E
:405EC000014610B50120002904D006220248FDF762FC002010BD00009403002001460120002903D00878024908700020704700008A03002010B506F0B3FA10BD10B50024C7
:405F000004F0C8FC002800D00124204610BD7CB5FF24069E079D00280BD0002909D0002A07D0002E05D0002D03D0002B01D01B2B01D901240BE00096019506F0ABF8042897
:405F400002D0052802D002E0292400E0002420467CBD7CB5FF24069E079D00280BD0002909D0002A07D0002D05D0002E03D0002B01D01B2B01D9012406E00096019506F090
:405F8000D0F8042800D1002420467CBDF0B589B015460F4606460124FDF70EFD002E20D0002F1ED0002D1CD0102239466846FDF7F2FB1022314604A8FDF7EDFB10216846B7
:405FC00015F092FC102104A815F08EFC2B46102204A9684606F076F81021284615F084FC0024204609B0F0BD10B508F09FFE0AF07BF808F025F810BD10B508F097FE06F03B
:4060000025FB09F0CFFE10BD70B592B00E4605460024FDF7D1FC01F0C7F8002806D0002D0ED0EA7F1F2A03D9012409E002242EE000A829460130FDF7AEFBE87F69460870C6
:40604000002E0FD0002C22D1F27F1F2A01D901241DE008A831460130FDF79DFBF07F08A9087001E0002C12D10020002D04D010A9684601F0DBF80120002E04D010A908A8FA
:4060800001F078F901E0002801D001F03DF8204612B070BD70B505460124FDF78DFC002D04D00821284615F0FBF90024204670BD10B5FEF7EDFE012801D1FEF7EFFE10BD80
:4060C0000148007A70470000000D00201CB5FF206946087100200870FDF76EFC6A4601A90620FEF77BFD6946002008561CBD000038B504460120002C20D0617801291DD88C
:4061000000290BD0FF25E535FDF756FC0C4828180088C0B22070072803D00EE0FF25CD35F2E70020694608706846FEF7D3FE69460878012801D108202070002038BD000018
:4061400000102E4010B507480024807B002806D00448203002F05AFF012800D1FE24204610BD0000400C0020F8B5012406460D46002925D013480078002808D0FDF71CFC60
:40618000694630460EF0A8F8040003D018E000200880F8BD6846008802F072F906000ED002F003FF00280AD00748F121807A0840C00602D5308A288002E0022400E00624CF
:4061C0002046F8BD88030020F80B0020014A0021926810478803002008B500226B461A7026280CD0094A342852680BD0352805D1900703D5002135200AF0A2F908BD1946F5
:406200002620F9E7D007F9D03420F5E78803002001460020002902D0024A5160704701207047000088030020F7B582B001A90EF053F805004CD1FDF7BFFB6846808802F0DB
:406240001FF9040043D002F0B0FE00283FD0FF278820493700593E46002805D01E49897A890601D5878AC68A204600F089FB01280ED005F095FF50210A5B617901F066F956
:40628000283081B233463A46204605F0C1F909E00096264604994036328A3B46084605F095F9F08220464030C28A04998A4200D9C182C18AA07804F0A1F80398012801D992
:4062C00001200390A078039904F064FA00E00625284605B0F0BD0000F80B00200149087270470000000D002010B501F097F810BDF8B50E4669460DF0EFFF05001BD1FDF7AC
:406300005BFB6846008802F0BBF804000AD002F04CFE00280FD0E08A002E05D001210843E08205E0062506E040084000E0820221204603F07BF92846F8BD0000F8B50446E5
:406340000120002C26D06178012902D92278092A20D8002905D0FF25E5352078092803D004E0FF25CD35F8E708202070FDF724FB2078114F114E08280DD00020FEF74CFEE8
:4063800070780128207810D00D4969180880FE2070700020F8BD0120FEF73EFE0720B8810549203188800120F2E7B8810248217820308180EBE70000C0112E4088030020A6
:4063C00000102E40F8B50E4669460DF085FF050033D1FDF7F1FA6846008802F051F8040019D002F0E2FD002826D01548F121807A0840C00621D520464030418A008A491CBC
:4064000041430804C00C0F4986420CD326822079072802D011E006250FE001200870204601F0D6FA09E0002E07D100200870A078002103F0C7FA00E002252846F8BD000056
:40644000F80B00208803002010B509480024807B00280BD0FEF71CFD062801D0032800D12824FFF76FFEFE2800D12824204610BD400C002070B50E46050001D0002400E029
:406480000C4C002C11D0E28A500609D5D107C90F022004F05FF9E08A40218843E08204E0D107C90F012004F055F93146284603F023FD70BD600C0020F8B5054600200446B7
:4064C0000D4E009013E022466946284601F0A8FA0098002801D015F0C7FAA878214603F001FAA878214603F0EFF9641CE4B2308AA042E8D8F8BD00002C0D0020F7B58E4678
:406500002249086820308078002802D08446002338E0FF20FEBD1D48212100680D5CE9000A1856799779D47912794058B2420DD315F09AFA1548006820304178491C89075D
:40654000890F41708178491E8170E2E78118B61A0098F6B20160BC4212D1A64204D290197146C0B20E7003E010197146C0B20C700299EA000D70054909685118087103E088
:406580005B1CDBB26345C6D30020FEBDF0030020064A02235188891C89B25180814201D8102900D953805088704700009A03002001484078704700009A030020F8B50D4667
:4065C0000446FCF7B1FE144E3068034620339A78042A1CD0E178A77809020F431978521C491C8907890F19709A70CA00845010184771316800205118087130681018C571EA
:40660000306810188571FCF78BFE0020F8BDFCF787FEFF20F8BD0000F0030020F8B54E4CFEF736FC012847D14C480078002843D003F0EAFB00283FD008F07AF800283BD052
:40664000474E7078C00703D000F0B4FD012833D0307E00287DD17078002500285BD0000706D540488089070B00F02EF9384370D13B484178684605F09DFD21793A4CA278A7
:406680008918C9B2814262D803F0BEFB002860D0344860300789324E203603F013F96846008803F05BF903F03DFA30490988884203D10120FEF78AFC4BE02D490120087027
:4066C0002748807B00281DD0002F1BD04036F07E002817D123486030008821494000C031498981420AD26078002807D104F070F82049088A03221202104308822078002879
:4067000000D0257003F08CF90120FEF7F9FB00F0B1FC174C15E003F077FB002819D0102403F000FA214603F085F803F017F9104C0120207003F074F90020FEF7E1FB00F0BE
:4067400099FC20780128B4D1FEF75EFB25700020F8BDFF20F8BD0000380C002018030020400C0020A0102E40B2030020C40300209A030020E0112E4010B50848FF244078C1
:40678000002809D103F040FB012805D1FEF708FA0720FEF71BFC0024204610BD400C002038B5FEF775FB012801D0002038BD03F02BFB00280AD0114C6078C00703D000F082
:4067C000F9FC012802D0207E002801D0FF2038BD617800290FD0684605F0ECFC022806D96846008803F0BAF8012003F023F90320FEF7ECFBD9E70020F7E70000400C002055
:4068000038B51E4CFEF744FB042813D0052811D0062812D003282AD007280AD100206946087002460120FEF7D9F9FEF731FB0128FBD138BD00F03EFC38BD03F013F900F0E1
:4068400039FC03F0A9F98007800F0228F4D10C4841880029F0D05B21095D0029ECD101210170A07D0140022003F074FF38BD03F0FDF80120FEF7AAFB38BD0000600C0020E9
:40688000B2030020F8B50646002403F0E1FF0546304603F0F7FF03460A480021068A0DE001228A401046174628401F40002803D0002F01D1224394B2491CC9B28E42EFD8AB
:4068C0002046F8BD2C0D002070B500252C460A4E03E0002C01D0002000E030460079002803D02046FFF7CEFF0543641C2406240EEFD0284670BD0000600C00201CB5002022
:40690000694648706846FFF7F3FB01AA69460A20FEF764F96946042008561CBD70B50D4601F0AEFD04000BD02079002808D0FDF743F8E178A0782A4603F08CFB002070BD1B
:40694000022070BDF8B50646002402F043FB05000CD1074F07E0B178204600F013FA012805D0641CE4B2F889A042F4D22846F8BD2C0D00200148007870470000380C00203B
:406980004030C07E002800D00120704700B500F001F800BD902148430749084A40186030417F491CC9B24177D289914201D300214177C8B270470000400C00202C0D00200F
:4069C00013B501F05DFD04000BD002F0EEFA002807D0214601AA0A310620FEF7FFF800201CBD02201CBD000010B50C4601F048FD00280AD002F0D9FA002806D022460449B2
:406A00000A20FEF7EBF8002010BD022010BD0000210C0020F3B581B0074601460026029803F00EFF0446002F01D0002500E0154D002D21D0284601F059FD032C04D13946F7
:406A4000029803F059FF06463846029902F03CFF032C06D0002C10D00121384601F036FF03E03146384604F019FA284602F0C4FD0221284602F0DAFDFEBD3846029902F0A8
:406A800023FFFEBD600C002010B5044600F0DAFA002804D105F0C8FA002801D00C2010BD2078611C03F0FAFBFF2801D01F2010BD03F040FCFF280AD02178621C02F08CFE30
:406AC000044821780068026B601C904710BD072010BD0000D803002010B505F0A5FA002801D00C2010BD03F0BBFB03480068C06A8047002010BD0000D803002070B50D46D5
:406B00000446102114F0F0FE10216018064614F0EBFE334610221946204605F0D3FA1021304614F0E1FE02202870204608F0A6FB70BD0000F8B50446407821780202800692
:406B4000870FE0781143A67809050002090D0643084601F095FC00210546F2B2002812D0002C10D0022F0ED0032F0CD0002A0AD00279092A07D0002A05D0134A5A23527E01
:406B80001B5C9A4207D82889002108F064FA204614F06AFFFF21002914D10C48224600682946436930469847C0B2FF280AD128464030817EF2B2491C8176FF23214628469E
:406BC00000F00DF9F8BD0000F80B0020F40300200020704710B5044605F026FA002801D00C2010BD2078611C03F058FBFF2808D003F084FA044821780068426B601C9047AB
:406C000010BD1F2010BD0000D803002010B500F0ADF908F00FFC002010BD000010B504460F4802F0F3F9012817D00D4805222146B030FCF7B0FD0A490522B0310846C038DD
:406C4000FCF7A9FD01F01AF8054880222038C17B1143C17300F0C6F910BD3A2010BD0000600C002010B5044600786178E2780843A17811430843217908436179084305D0A2
:406C800005F0BCF9002803D00C2010BD122010BD204603F0FBFB002010BD000010B5FCF75BFB03F0F7FD044805F09EFB03F030FA012000F003F810BD080C0020F1B586B026
:406CC00003A8009005A801902A489F22817A114081726846FCF7F0FE002849D169460989C90705D0244806990068C2686846904769460989890706D5002839D11F48006823
:406D0000816A06988847002832D11D4E0025757075737571F575357675767575B570F570B5713746F5730120D03738731F20F880FF2130467972A0300176457600F036FBE0
:406D400004F066FE02F012F900242046069902F0BFF8002803D1641C2406240EF5D0FD720749BD72B573C0310D704D704D600D7207B0F0BDF80B0020F4030020D803002049
:406D8000400C002070B505460E46084603F060FD0446304603F076FD0121A9400A46224001400A4301D0012070BD002070BD10B50446084603F066FD0121A140014201D05E
:406DC000012010BD002010BD10B5FEF761F8032804D102F04BFE0120FEF7F8F810BDFEB51C4616460F46054602F006FCA878FFF7CDFD02460190334639460094284600F0EF
:406E00000DF8002808D1A8780199FFF733FBFF2C02D1384614F028FEFEBD0000FFB585B005460E980C46FF2810D02B49C00009680A5840180179C0795278814201D901263A
:406E400001E09006860F6846038108E06078A1788006860FE0780002014368460181284602F0B8F8070007D021462846079A00F058FD384609B0F0BD304600F069FE04AE06
:406E80000346039002AA29460096204600F01FFC3C20405D002818D0284602F09BF8012813D0684600890096C0B20190A878231DFF22079902F0D4FF68460089039BC2B2CD
:406EC000A878079903F00EFCD3E7684600890021C0B20091E9E70000F0030020F8B5002600253046FFF7CEFC07001DD090201149704340186030447F12E0601CFCF70CFBEB
:406F0000CCB23846E040C007C00F07D02146304602F0D0FC21463046FFF77CFD6D1CEDB20548018AA942E8D8761C3606360ED7D0F8BD0000400C00202C0D002070B50024BA
:406F4000094D03E0002C01D0002000E028464121095C012901D100F09AFC641C2406240EF0D000F03FF870BD600C002010B503F0CFF80020FFF7A2FE14F00CFE002010BD78
:406F8000F8B5002400F010F90125012800D1012404F0DAFC012801D102200443104F00203E4620360423082203E0002801D0002100E031460979002907D001290BD00229E4
:406FC0000BD0114681402143CCB2401C0006000EEBD07C70F8BD2C43F7E71C43F5E70000400C002070B5144E0024F07BC00921D03546203503E0002C01D0002000E028460E
:4070000001F0DEFF012814D0641C2406240EF2D0F07B4006400EF073002403E0002C01D0002000E0284600F032FC641C2406240EF4D0002070BD0000400C002010B5FFF7D1
:407040009FFF10BD10B5044608F0DCFB002802D1601C00F001F810BD1CB500240094062269460194FCF788FB002800D1122420461CBD000070B50E4CFCF757F80546FDF7C1
:4070800007FF062802D02078012803D02846FCF750F870BDFBF740FE2846FCF74AF8FDF7F7FE0628F5D020780028E5D170BD00009A03002010B5FCF738F80446FDF7E8FE45
:4070C000012809D0FDF7E4FE022805D0FBF724FE2046FCF72EF8EEE72046FCF72AF810BD10B50B4681791943817103D08078114603F07EFA10BD10B582798A43827102D1FE
:40710000807803F089FA10BD30B50C4C0220A28A0B4B9978002901D0022906D11D785B78EB18282B01D9032002E0032900D101205105490DC0020143A18230BDC0112E406A
:40714000A803002000B500F035F8002807D0012805D0032801D0042801D0002000BD012000BD000002460448018B0020C908114200D001207047000000102E40014600B53B
:407180000020C90701D000F00FF800BD014600B50020C90701D000F007F800BD0148006870470000A003002001480088000A704720102E400448008B410501D504207047C8
:4071C0004007800F7047000000102E400148406870470000A003002038B50446000610D5FFF7E8FF01280CD1684602F059FC6846007800F09AFB012002F07AFA0220FFF7D5
:407200001DFF600708D507480179012904D1002101712620FEF7E0FF0348006801692046884738BDAC030020D803002010B501460A4A007800241070FFF7B6FF01280846CA
