:400000000080002011000000D1010000D101000010B500F033FA00F0E3F8000070B572B680250024264BED001C602A002100254800F02DFE2A002100234800F028FEEE221F
:40004000224B12061A6099230621214A1B041360204A30201360204A1360204A13780B431370D8221E4B12041A6020221D4B1A60C0221D4B92021A60C0221C4B12041A6089
:4000800012221B4B1A6000F07FFB1A4A1A4B1B491A601B4B063A1A6080221A4B12031A60082000F043FB082000F04CFB164B174A1C6003231360164A1360164B1C6070BDFC
:4000C0006CF02E4000300F4000400F400000024000500F4010500F4030500F4000700F4008000440000104400801044008030440300010400600008004010B40510900002D
:4001000008010B4000010B400C020B403000304030003140000E3F4010B5064C2378002B07D1054B002B02D0044800E000BF0123237010BD6801002000000000A80C00004A
:40014000084B10B5002B03D00749084800E000BF07480368002B00D110BD064B002BFBD09847F9E7000000006C010020A80C0000C80000200000000010B5012000F04CFA5C
:40018000002000F049FA0C2000F03AFC0C4C200000F04EFA200000F04BFA0A4800F048FA094800F045FA094800F042FA200000F03FFA200000F03CFA00F0CAF9FEE7C046E7
:4001C000E50C0000AC0C0000D60C0000E80C000010B500F027FD03680C2B00D1FEE7FEE7F8B500250F49104B01394A1C14D000221F685C689E68A018B24203D0B858A0506F
:400200000432F8E70200DE68141AA64201D020C2FAE710330139E8E700F00AFDFFF7ACFFFEE7C046010000006C0D000001210F4A70B5136814008B43136000230C4D0D4E27
:400240000D489A002900032B00D8B15801338150302BF6D1FFF7E2FE084B1A68002A00D11A60012223681343236070BD00001040D10100000000000000000020C00000203A
:400280000047F0B5FF230C000100C1B099430B004D1C6946020AFF35CE1A1F78F7540133AB42FAD1C0B20C5490B200F0CFF941B0F0BD0000013810B50B2830D80902494284
:4002C00000F01AFC06080A0C0E10141216191B20174B13E0174B16E0174B0AE0174B12E0174B0BE0174B09E0174B02E0174B00E0174BC91817E0174B05E0174BC918087877
:40030000C0B214E0154BC9180A7848788C780002230418430300C8781343000606E0002000F01AFA00210B7848780002184310BDC0FF0300C1FF0300C5FF0300C9FF0300FE
:40034000D0FF0300D1FF0300D6FF0300D2FF0300D4FF0300D8FF0300DCFF0300E0FF0300F0B50121C5B00B20FFF7A4FF0021C3B203200193FFF79EFF3A4B013084B21B1BBA
:400380005B089BB201210420E4180093FFF792FF030AC0B2A4B29BB2002801D001339BB200251B199BB20293029B9C4224D00326009B2702E31A9BB203933B007A1C04A9A0
:4003C000FF32C81B1D78C55401339342FAD1039800F03CF9051E0CD0013EF6B2002EECD10123019920489943FFF74BFF300000F0B3F90134A4B2D7E7002D2ED180235B0055
:400400001A4A04A9AA1812786A5401359D42F7D144AB5B1B190001220024DC310A70144910480C701900D031D1330A7004A91A7000F00CF92A000600210004A800F027FC73
:4004400004A90C4800F002F93043A04205D18022094B1A6000F082F902E0002000F07CF945B0F0BDFF030000DCFE030000FE0300CC000020FE030000C0000020184B70B54C
:400480001A681023174D134000D12B602B68802B25D100210520FFF70DFF012104000520FFF708FF0023E4B2C0B29C4204D01C00984205D0033403E0441EA0410224241A47
:4004C000210002202B60FFF7F5FE002807D0012C05D821000220FFF7EDFEFFF7D1FE70BD00030B40C000002070B5010006000320FFF7E0FE310004000420FFF7DBFE0500A8
:40050000012E01D9062021E00134310024020320FFF7D0FE611900242500431C1B028B4209D21A78501EC0B2FD2800D80125A218D4B20133F3E731000120FFF7BBFE6442A7
:40054000E4B28442DED1002DDCD0002070BD0000F8B501210B20FFF7ADFEC30701D5FFF7FFFE0020FFF7C0FF05000120FFF7BCFF0223254C0700002105202370FFF79AFE6C
:400580000626012808D1002D02D125702E0003E0002F01D13E0020702378022B0ED101210520FFF787FE012808D1002F02D120703E0003E0002D01D12E0025702378022BF0
:4005C00008D1002D01D1257006E0002F02D10123237001E0002E12D12478E4B2012C08D801210A486140FFF74CFE21000848FFF748FE8022074B1A6000F0B0F8F8BD0020E1
:4006000000F0AAF8F5E7C046CC000020D0FF0300D0FE0300C00000207F23044AC00111680B401843C0B210607047C0460003044070B5012405000078002805D000F0E0F994
:40064000285D0134E4B2F7E770BD00000023F0B5C7B0029303932C4B050098424FD800294DD0802206A8520000F008FB274B9D4201D8274B00E0274BFF220493264C2749D5
:40068000274B04AE726026600B60C046236801911B0F0F2B04D021680023090F0A2901D0236813400293029F002F2AD100F01DFA0397029B002B16D11A4A2D040492049AD9
:4006C000194915430495019D2660134A2960C0462168090F0F2903D01168090F0A2901D01368DBB20293039B002B05D10393039B002B01D0039B029300F0FBF901E00423CB
:400700000293029847B0F0BDFF030000FF010000B6D70000B6D70001080010400400104004000080B6D80000050000801F2800D901BE034B8000C318186819607047C04648
:40074000400000201F2318401E3B8340014A13607047C04600E100E001BE7047034A044913689BB20B4313607047C0460CED00E00400FA0510B5034B1B7B584300F0ACF91C
:4007800010BDC046E4000020F0B5050087B000F0ACF9EB1E049003932D2B5CD8314B1B789D4204D8304B1C78304BE4B21EE0304B1B789D4204D82F4B1C782F4BE4B215E069
:4007C0002E4B1B789D4204D82D4B1C782D4BE4B20CE02D4B1B789D4204D82C4B1C782C4BE4B203E02B4B1C782B4BE4B21B78EA1EDBB20193294B2A4F9A5C059302922F2A31
:4008000004D92A2D02D919263E6008E03F233E681E40029BB34205D2214B029A1A60052000F05AF91C4B1F4AED182B780520DBB213601D4B019A1C601C4B1A60FFF79AFF9F
:40084000029BB34208D9059B039A05209B5C3B6000F042F900E001BE049800F04AF907B0F0BDC04640F3FF0F41F3FF0F42F3FF0F43F3FF0F44F3FF0F45F3FF0F46F3FF0F32
:4008800047F3FF0F48F3FF0F49F3FF0F4AF3FF0F4BF3FF0F4CF3FF0F4DF3FF0F180D00002CFF0B4028FF0B401CFF0B4020FF0B4010B500F01AF9C021034A090213680B4384
:4008C000136000F016F910BD00010B4010B5802400F00BF90749084B0A68E4011A4022430A600A6813408022120213430B6000F000F910BD00010B40FF3FFFFF70B5050049
:4009000000F0F3F80E4B04001A68C0231B02134011D10C480C49054028000E680B4A3240104308600A68012B01D1FFF7C1FF200000F0DFF870BDFFF7C9FF0123E9E7C046C8
:4009400000010B400404040010020B40FBFBFBFF042270B5224C2368134213D021494B6813420CD0204B5D6A48681540A8434860596A914359629B69002B00D098470420EA
:40098000FFF7BCFF80232268DB001A4215D015494A681A420DD0144A556A48682B4098434860516A114B0B405362D369002B00D098478020C000FFF7A1FF80232268DB020C
:4009C0001A420CD0074A52681A4204D0064B1B6A002B00D098478020C002FFF78FFF70BD10020B40F800002084010020FFFBFFFF00000000000000000000000000000000AF
:400A0000FEB5494652465B460EB407462E4909688A462E4A12682E48022100F077F803002A480068C0182A4900F070F806001F3EB346234A126801219140C9430C00012596
:400A4000002600F052F8814651460B6823400B605846043000F040F83800F040284090400B68234003430B60584600F035F80136072EF1D900200130012090400B6823404D
:400A800003430B605846063000F026F8484600F030F8C046C046C0460EBC894692469B46FEBDC046C046C046C046C046C046C046C046C046C046C046C046C046C046C04684
:400AC000E0000020DC000020D8000020F400002000E10000000000000230800803D00138FDD1C046C046C0467047EFF3108072B6704780F31088704702B471464908490096
:400B0000095C49008E4402BC7047C046002243088B4274D303098B425FD3030A8B4244D3030B8B4228D3030C8B420DD3FF22090212BA030C8B4202D31212090265D0030B90
:400B40008B4219D300E0090AC30B8B4201D3CB03C01A5241830B8B4201D38B03C01A5241430B8B4201D34B03C01A5241030B8B4201D30B03C01A5241C30A8B4201D3CB02E6
:400B8000C01A5241830A8B4201D38B02C01A5241430A8B4201D34B02C01A5241030A8B4201D30B02C01A5241CDD2C3098B4201D3CB01C01A524183098B4201D38B01C01AF8
:400BC000524143098B4201D34B01C01A524103098B4201D30B01C01A5241C3088B4201D3CB00C01A524183088B4201D38B00C01A524143088B4201D34B00C01A5241411ACF
:400C000000D20146524110467047FFE701B5002000F006F802BDC0460029F7D076E770477047C046014B18687047C046600100200E4B70B500251E000D4CE41AA410A5420E
:400C400004D0AB00F35898470135F8E700F07CF8084B00251E00084CE41AA410A54204D0AB00F35898470135F8E770BD540D0000540D0000540D00005C0D0000002310B570
:400C80009A4203D0CC5CC4540133F9E710BD03008218934202D019700133FAE770470000000F000011000000000000003E20424C452055706772616461626C65205374611B
:400CC000636B204578616D706C65204C61756E636865720D0A003E2056657273696F6E3A20312E32300D0A003E20436F6D70696C65204461746520616E642054696D653A5A
:400D0000204A756C20333020323031392031343A31333A34340D0A00030405060708090A0B0C0E0F101112131415161718191B1C1D1E1F2021222325262728292A2B2E2F5C
:400D40003031323334354300F8B5C046F8BC08BC9E467047410100002D020000F8B5C046F8BC08BC9E46704719010000800D0000C8000020A000000048000000000000008D
:400D80000000000002000000A00C0000A40C0000000104400100000005000000010000000000E02EC05D00001800000000366E01F0000000040404000000000000000000A5
:400DC000000000000000000000000000000000000000000000000000460D0000000000000000000000000000000000000000000000000000000000000000000000000000A0
:400E00000000000000000000000000000000000000000000000000000001002000000000000000000000000000000000000000000000000000000000000000000000000091
:400E40000000000000000000000000000000000000000000000000000000000000000000000000000000000000000000000000000000000000000000000000000000000072
:400E80000000000000000000000000000000000000000000000000000000000000000000000000000000000000000000000000000000000000000000000000000000000032
:400EC00000000000000000000000000000000000000000000000000000000000000000000000000000000000000000000000000000000000000000000000000000000000F2
:400F000000000000000000000000000000000000000000000000000000000000000000000000000000000000000000000000000000000000000000000000000000000000B1
:020000040003F7
:40FFC00000000000000000000000000000000000000000000200000000000000000300000000000000000000000000000000000000000000000000000000000000000000FC
:0200000490303A
:0200000083E19A
:0200000490402A
:4000000000000000000000000000000000000000000000000000000000000000000000000000000000000000000000000000000000000000000000000000000000000000C0
:400040000000000000000000000000000000000000000000000000000000000000000000000000000000000000000000000000000000000000000000000000000000000080
:0200000490501A
:0C0000000002135311A300011357958454
:0200000490600A
:0100000001FE
:00000001FF